:100000000C9434000C94B5000C9451000C945100E5
:100010000C9451000C9451000C9451000C9451001C
:100020000C9451000C9451000C9451000C9451000C
:100030000C9451000C9451000C9451000C945100FC
:100040000C9451000C9451000C9451000C945100EC
:100050000C9451000C9451000C9451000C945100DC
:100060000C9451000C94510011241FBECFEFD8E026
:10007000DEBFCDBF11E0A0E0B1E0E8E9F3E002C0EF
:1000800005900D92A233B107D9F721E0A2E3B1E0C8
:1000900001C01D92A633B207E1F70E94F5000C944F
:1000A000CA010C940000409A000000004098089596
:1000B00014B8419A42982F9B03C00E945300FBCF73
:1000C0008FEF84B90895CF93C82F0E945800C5B907
:1000D000419842980E94530015B8CF91089587B176
:1000E000876087B98FE59AEE0197F1F700C00000AD
:1000F00081E00E9463008FE39FE10197F1F700C068
:10010000000088E30E94630087EC90E00197F1F71C
:1001100000C000008EE00E94630087EC90E0019731
:10012000F1F700C000000895CF93C82F0E94580037
:10013000C5B94198429A0E94530015B8CF910895CD
:10014000CF93DF93EC01899118161CF40E94940060
:10015000FACFDF91CF910895E62FF0E0E150FF4F05
:1001600081589081890F0C9463001F920F920FB6F3
:100170000F9211248F939F938091320190913301BC
:10018000892B61F48091810081608093810081E0FE
:1001900090E0909333018093320112C0109281005D
:1001A0008091840090918500909335018093340173
:1001B0001092850010928400109233011092320147
:1001C0009F918F910F900FBE0F901F9018959BB12C
:1001D00088E089278BB983E090E008959BB180E1A6
:1001E00089278BB982E090E00895CF93DF93CDB754
:1001F000DEB760970FB6F894DEBF0FBECDBF10928A
:10020000C50082E08093C40086E08093C20088E04D
:100210008093C1008FEF84B9539A549A0E946F0063
:100220008BEF8AB92FEF80E792E021508040904019
:10023000E1F700C000000E946F00809169008160BA
:1002400080936900E89A78948AE3E82EF12C589A12
:1002500020E52A95F1F75898809134019091350165
:10026000B7010E946D018B016630710544F482E094
:1002700091E00E94A0000E94EE000E94E70082E14F
:1002800091E00E94A00062E081E00E94AC0082E266
:1002900091E00E94A0004AE0BE016F5F7F4FC8015D
:1002A0000E949501CE0101960E94A0008CE291E08F
:1002B0000E94A00062E08DE00E94AC008EE291E01E
:1002C0000E94A00061E081E00E94AC008091C0002B
:1002D00085FFFCCF0093C600BACF97FB072E16F41C
:1002E000009407D077FD09D00E94810107FC05D05A
:1002F0003EF4909581959F4F0895709561957F4F3D
:100300000895AA1BBB1B51E107C0AA1FBB1FA6175C
:10031000B70710F0A61BB70B881F991F5A95A9F7AE
:1003200080959095BC01CD010895BB274A3031F4EA
:10033000992322F4BDE2909581959F4F0C94A101E1
:10034000BB27FB015527AA27880F991FAA1FA417AF
:1003500010F0A41B83955051B9F7A05DAA3308F0A3
:10036000A95DA193009779F7B111B1931192CB01D7
:100370000C94BA01DC01FC01672F71917723E1F73E
:10038000329704C07C916D9370836291AE17BF0762
:08039000C8F30895F894FFCFB3
:1003980000404475737462696E2069732066756CD9
:1003A8006C0044697374616E63652053656E736F86
:1003B800720044697374616E63653D002000636D6B
:0203C800000033
:00000001FF
